:100000000C9487020C9408260C943A260C946C26C7
:100010000C94A6020C94A6020C94A6020C94A602C0
:100020000C94A6020C94D6250C94A6020C94A6025D
:100030000C94A6020C9435240C94A6020C9435243E
:100040000C94A6020C94A6020C94A6020C94A60290
:100050000C94A6020C94A6020C94A6020C94A60280
:100060000C94A6020C94A6020C94A6020C94A60270
:100070000C94A6020C94A6020C94A6020C94A60260
:100080000C9468240C94A6020C94A6020C94A6026C
:100090000C94A6020C94A6020C94A6020C94A6033F
:1000A0000C94A6020C94A6020C94A6020C94A60230
:1000B0000C94A6020C94A6020C94A6020C94A60220
:1000C0000C94A6020C94A6020C94A6020C94A60210
:1000D0000C94A6020C94A6020C94A6020C94A60200
:1000E0000C94A6020C9477070C9468070C943807BC
:1000F0000C9428080C9429070C941A070C940B07ED
:100100000C94FC060C94A6020C94A6020C94A60275
:100110000C94A6020C94A6020C94A6020C94A602BF
:100120009C09A909B609C309D009DD09EA090D0A24
:100130001B0A290A370A450A530A610A840A860AF1
:10014000880A8A0A8C0A8E0A900AAF0AD20AF60A2C
:10015000190B3C0B5F0B820BBC0BC90BD60BE30BD3
:10016000F00BFD0B0A0C230C300C3D0C4A0C570C09
:10017000640C710C8E13941397139A139D13A01390
:10018000A613A313A913AC13AF13B813BB13BE1359
:10019000C113B5138B139113C413C713B213881370
:1001A000B014B314BE14C314CA14D314D614DB147D
:1001B000E214EB140D0A4E616E6F2D524B20546108
:1001C000736B20537461746973746963733A0D0AB5
:1001D000000D0A000D0A2020204F766572666C6FB4
:1001E00077204572726F72205374617475733A2070
:1001F000000D0A2020204B65726E656C2056696FD9
:100200006C6174696F6E733A20000D0A20202050D3
:100210007265656D7074696F6E733A20000D0A2007
:100220002020537761702D696E733A20000D0A20EB
:10023000202054696D65205B4D696E2C4C61737490
:100240002C4D61785D3A20000D0A202020546F74F7
:10025000616C204350553A20000D0A20202049644B
:100260006C65205461736B204465657020536C6528
:1002700065702054696D653A20000D0A20202054D5
:100280006F74616C2053797374656D205570746957
:100290006D653A2000205461736B2049443A200078
:1002A000554E4B4F574E0045787465726E616C2009
:1002B00052657365740042726F776E204F757420BB
:1002C000446574656374004661696C656420746F8D
:1002D000206372656174652053656D6170686F722B
:1002E00065004661696C656420746F2063726561A6
:1002F0007465205369676E616C004B65726E656C46
:100300002066756E6374696F6E206E6F7420696D00
:10031000706C656D656E74656400446576696365CF
:1003200020447269766572204572726F720057615F
:10033000746368646F6720526573746172740053EC
:1003400057205761746368646F67205265737461E6
:1003500072740054696D6572204F766572666C6FB9
:100360007700556E68616E646C656420496E7465D3
:10037000727275707420566563746F72004C6F777B
:1003800020566F6C74616765004578747261205403
:1003900061736B20737461727465642C20697320BF
:1003A0006E726B5F6366672E68206F6B3F004964F7
:1003B0006C65206F72204B65726E656C20537461A2
:1003C000636B204F766572666C6F7700556E65784B
:1003D000706563746564205265737461727400445F
:1003E00075706C696361746564205461736B204936
:1003F00044005363686564756C6572204D6973735E
:1004000065642057616B657570005461736B205291
:100410006573657276652056696F6C6174656400FA
:1004200052657365727665204572726F7220696ECF
:10043000205363686564756C657200496E76616C03
:10044000696420537461636B20506F696E746572C8
:10045000005461736B20537461636B204F76657237
:10046000666C6F7700537461636B20776173206EE5
:100470006F7420646566696E6564206173206C61C9
:1004800072676520656E6F75676821005461736BD4
:1004900020706572696F6420746F6F206C61726781
:1004A000652E20506572696F64206D7573742062CB
:1004B00065206C657373207468616E20363120731B
:1004C00065636F6E64732E00293A20002A4E524BEA
:1004D000204552524F5228004E524B205265626FB7
:1004E0006F742E2E2E0D0A000D0A535441434B20DB
:1004F00044554D500D0A0045464765666700202B60
:100500002D2E3031323334353637383968001124E6
:100510001FBECFEFD1E4DEBFCDBF13E0A0E0B2E05D
:10052000E4E1F9E500E00BBF02C007900D92A236AE
:10053000B107D9F717E0A2E6B3E001C01D92A230DF
:10054000B107E1F70E9481270C94882C0C942B248E
:100550000E94881AFDCFCF93C82F883411F08032C3
:1005600011F40E9482031F92CF9388E692E09F933A
:100570008F930E944A2A0F900F900F900F908C2F0C
:10058000CF9108950F931F93CF93DF93DCE4CDE2D7
:1005900018E007EA8091620390916303892B29F5A3
:1005A000D0934505C09346051093470563E085E465
:1005B00095E00E94600300934505C093460562E004
:1005C00085E495E00E94600310924505109246056F
:1005D0001092470563E085E495E00E948F0390E068
:1005E0009093630380936203D5CF8DE692E00E94DF
:1005F000642A809147051F928F9384E792E09F932E
:100600008F930E944A2A0F900F900F900F9089E8C5
:1006100092E0DF91CF911F910F910C94642A68EAC8
:1006200072E08BE793E00E94DC2640E850E06AEA43
:1006300073E08BE793E00E94E026EBE7F3E081E0D4
:10064000808787838187828713861486158616861E
:1006500080E892EBA6EEBEE08787908BA18BB28BF1
:10066000138A148A158A168A80E091EEA5EFB5E008
:10067000878B908FA18FB28F81E090E0A0E0B0E0F7
:10068000838F948FA58FB68F178E10A211A212A2FE
:10069000CF010C94F6198AE08093B8008FEF809315
:1006A000BB0084E08093BC0008958091BC00817001
:1006B00008958091BC0080FDFCCF809100020895D8
:1006C0002091BC0020FDFCCF60936603FC012081DB
:1006D0002093670320FF09C01092640388EF809382
:1006E000000285EA8093BC000895FC01319627E65C
:1006F00033E0D90111968A2F821B861768F7819102
:100700008C93F8CF8091BC0080FDFCCF10926403E5
:1007100088EF8093000285EA8093BC0008952091C1
:10072000BC0020FDFCCF2091640320FD04C080911B
:1007300064038170089527E633E0FC01D9018A2F14
:10074000821B8617A0F78D918193F9CF1F920F928C
:100750000FB60F9211240BB60F922F933F938F93E6
:100760009F93EF93FF938091B900883201F140F499
:100770008031D9F08831D9F0883009F04AC015C0ED
:10078000803491F128F4883309F043C085EA46C0EB
:100790008035F1F08835E9F58091BB00E091650383
:1007A000F0E0E959FC4F80832DC010926503E09181
:1007B000650380916603E81728F581E08E0F80932A
:1007C0006503F0E0E959FC4F80818093BB0018C0BD
:1007D000E091650381E08E0F809365038091BB00FB
:1007E000F0E0E959FC4F80832091650330E080916F
:1007F000660390E001972817390714F485EC0EC0C2
:1008000085E80CC08091640381608093640384E96F
:1008100005C08091B9008093000284E08093BC0001
:10082000FF91EF919F918F913F912F910F900BBE70
:100830000F900FBE0F901F901895909141019F71DE
:100840009F31D9F3809342010895809371030895F5
:1008500081E080935B05089510925B050895809177
:1008600041018F718F31D9F3809141018F71E1F096
:100870008F30D1F0809141018F71883031F48091B7
:1008800039018260809339010BC088E00E941D0409
:10089000809141018F718830D9F7F1CF8F3021F0ED
:1008A000809141018F71D1F70895809141018F713D
:1008B0008F31D9F3809141018F7111F08F3051F454
:1008C000809139018D7F80933901809141018F7131
:1008D0008830D9F70895E5E4F1E09081907F908326
:1008E00090818F70982B90830895E7E5F1E08081E7
:1008F0008D7F80830895E7E5F1E0808182608083C9
:100900000895EEE6F1E080818F7E80830895EEE623
:10091000F1E08081806180830895809360019093ED
:1009200061019093650580936405089590935F0538
:1009300080935E05E8E4F1E08081807E80838081A1
:10094000682B6083089590937503809374030895D2
:10095000909373038093720308950F931F93CF9323
:10096000DF93FC01D90180E28093440180EC809305
:10097000450160626093480185EC8093490187EAF4
:1009800080934B0180E880934C0120936001B093E9
:1009900061014093620150936301C6E4D1E0088194
:1009A000888198812881302F32953695377060E4A0
:1009B000369F80011124229526952370622F602B8B
:1009C00082958695837070E1879F90011124262B74
:1009D00092959695937084E0989FB0011124622BB4
:1009E00060936D0188819881929596959370392FC7
:1009F0003064982F92959670932B90936E0110927D
:100A00006C0184E080934E01CEE5D5E0F983E88364
:100A10001A821B825D834C83BF83AE83188681E07C
:100A200080937F0510925B05DF91CF911F910F910D
:100A3000089586E10C941D0486E10C941D0488E061
:100A40000C941D040F931F93CF93DF93FC018091AF
:100A50007F05811102C08FEFACC0268180916005B7
:100A60008F5F8093600590918101907E916020FB63
:100A700095F99F7390649093810188E88093820137
:100A800080915B05882361F08FEF809383018AEA70
:100A90009AEA90938901809388018FEF9FEF10C0AD
:100AA00080916005809383012091610180916001B4
:100AB00090E0922B909389018093880180819181AD
:100AC0009093870180938601209163018091620158
:100AD00090E0922B90938501809384018F01428155
:100AE000552747FD5095638174818AE891E00E9403
:100AF000B029F8018281855F809380018091410156
:100B0000D82FDF719FEF9D0F9230C0F3D131B1F339
:100B1000D231A1F3DF3191F398EF9D0F923020F0A5
:100B20008F70863009F097CF86E10E941D04F8018E
:100B3000858181110BC089E00E941D04F801868126
:100B4000882391F089E10E941D040EC08091480124
:100B50008068809348018091410187FFFCCF80919C
:100B6000410186FF78CFE7CF82E00E941D0480E03C
:100B700090E020914F0126FD05C00196883EFDEFD3
:100B80009F07B9F720E420934F01F8012681222323
:100B900031F02091420122952695277029F4883E54
:100BA0009D4F11F0C1E001C0CFEF8D2F0E941D04B9
:100BB0008C2FDF91CF911F910F910895CF93DF93E9
:100BC00080917F05882341F180914101C82FCF7129
:100BD0009FEF9C0F9230C0F3C131B1F3C231A1F34A
:100BE000CF3191F3C83019F08F708630A9F486E1C7
:100BF0000E941D0480914801806880934801809183
:100C0000410187FFFCCFD09141018C2F0E941D0430
:100C1000D6FB882780F901C08FEFDF91CF9108952F
:100C200080917F05882309F4E5C080914F0183FFFF
:100C3000DFC08091460187FFDBC080917B01E0919E
:100C40005E05F0915F0590E002972481332727FD30
:100C50003095281739070CF4CDC088E080934F01F8
:100C6000E0915E05F0915F05809182018083E091C3
:100C70005E05F0915F0580918701909188019283D4
:100C80008183E0915E05F0915F0580917B018B503F
:100C90008383A0915E05B0915F05E0915E05F091C0
:100CA0005F0513969C91848189173CF0E0915E0565
:100CB000F0915F05838187FF0BC080914C018F7796
:100CC00080934C0180914C01806880934C0192C0CC
:100CD000A0915E05B0915F05E0915E05F0915F0522
:100CE00013964C91552747FD509569E871E0858131
:100CF00096810E94B02980917103882309F43EC037
:100D0000E0915E05F0915F0583818031B9F5E09156
:100D10005E05F0915F056581768144E050E081E0F9
:100D200092E00E94B929892B49F5E0915E05F09186
:100D30005F056581768140E150E081E092E00E94AC
:100D4000B929892BD9F49DE088E10FB6F894A895CC
:100D5000809360000FBE9093600080E090E00E945E
:100D6000B90C81E090E00E94B90C82E090E00E9412
:100D7000B90C83E090E00E94B90CFFCFE0915E05D2
:100D8000F0915F058091800185FB882780F987833A
:100D9000E0915E05F0915F05809147018087E091C9
:100DA0005E05F0915F058091460186958695869552
:100DB0008187E0915E05F0915F0580914701828710
:100DC000A0915E05B0915F05E0917B01F0E0E058F5
:100DD000FE4F80811B968C9380914C018F7780937E
:100DE0004C0180914C01806880934C0181E0089512
:100DF00080E008958FEF08951F920F920FB60F9223
:100E000011248F9380E880934F018F910F900FBE34
:100E10000F901F9018951F920F920FB60F921124EA
:100E20008F9380E480934F018F910F900FBE0F90AE
:100E30001F9018951F920F920FB60F9211248F9347
:100E400080E280934F018F910F900FBE0F901F9003
:100E500018951F920F920FB60F9211248F9380E175
:100E600080934F018F910F900FBE0F901F90189598
:100E70001F920F920FB60F9211240BB60F922F9361
:100E80003F934F935F936F937F938F939F93AF9312
:100E9000BF93EF93FF9384E080934F01E09174033D
:100EA000F0917503309709F00995FF91EF91BF918B
:100EB000AF919F918F917F916F915F914F913F91F2
:100EC0002F910F900BBE0F900FBE0F901F90189593
:100ED0001F920F920FB60F9211248F9382E080938E
:100EE0004F018F910F900FBE0F901F9018951F927A
:100EF0000F920FB60F9211248F9381E080934F01D0
:100F00008F910F900FBE0F901F901895E9E4F1E0BC
:100F10009081907F908390818F70982B908308951B
:100F20008FEF08950895089508958FEF08958091A3
:100F3000590590915A050895089581E0089581E03A
:100F4000089581E0089508950895089508950895F5
:100F500008950895089598988DB1806E8DB98EB1D9
:100F6000806A8EB9089598988DB1806E8DB98EB1D2
:100F700080668EB90895CF92DF92EF92FF920F9321
:100F80001F93CF93DF93CDB7DEB727970FB6F894B3
:100F9000DEBF0FBECDBF0E94D60DE0915E05F09181
:100FA0005F05C080D380E580F68000850E94100632
:100FB00018161CF08BE892E006C0F70110811111A1
:100FC00007C08AEA92E00E94642A0E94D80D31C0CC
:100FD000153021F48AE090E00E945E2AC701019654
:100FE0009F938F93802F992787FD90959F930F93C1
:100FF0001F921F931F92CF928CEC92E09F938F933E
:101000000E944A2AFD82EC821150F7011083DB8294
:101010001E821F828FEF9FEF9A8389830E94D80DD3
:10102000CE0101960E9422050FB6F894DEBF0FBED6
:10103000CDBF27960FB6F894DEBF0FBECDBFDF91B0
:10104000CF911F910F91FF90EF90DF90CF90089577
:101050001F920F920FB60F9211240BB60F922F937F
:101060003F934F935F936F937F938F939F93AF9330
:10107000BF93EF93FF9380E090917B01891710F469
:101080008F5FFACF88E080934F018091460187FF00
:1010900005C080915B0581110E94BB07E09172033E
:1010A000F0917303309709F00995FF91EF91BF918B
:1010B000AF919F918F917F916F915F914F913F91F0
:1010C0002F910F900BBE0F900FBE0F901F90189591
:1010D000AFE6B5E0FC01409620812D93219120934D
:1010E0003F01E817F907C1F780E110923E018150F6
:1010F000E1F780E880933C0180913D0180FFFCCFC7
:10110000E8E8F5E080E18E0F90913F0191938E1316
:10111000FBCF0895CF93DF93DC01662309F445C02C
:10112000862F8F7009F041C0EFE6F5E090E19E0F49
:10113000219120933F019E13FBCF90E070E0E0E20D
:1011400040E1949F90011124261737077CF59111F7
:1011500003C010923C0102C0E0933C0140E050E02B
:101160002A0F3B1FE901C40FD51FF881F0933E0100
:101170004F5F5F4F40315105A9F740913C014068F6
:1011800040933C0140913D0140FFFCCF40E050E0E6
:10119000F0913E01E901C40FD51FF8834F5F5F4F07
:1011A00040315105A9F79F5FCBCF81E0DF91CF910F
:1011B00008950F931F93CF93DF93DC01613009F4FF
:1011C00058C0862F8F7009F054C0E8E8F5E090E130
:1011D0009E0F219120933F019E13FBCF62956F706C
:1011E000615078E06F3F09F445C070933C01462F91
:1011F000552747FD509520E030E0ED0190E1690270
:10120000C00DD11D1124FE01E20FF31F90819093B8
:101210003E012F5F3F4F20313105A9F790913C01EE
:10122000906890933C0190913D0190FFFCCF41501C
:10123000510994E0440F551F9A95E1F720E030E002
:1012400090913E018E01020F131FF80190836623D7
:1012500049F0F901E40FF51FEA0FFB1FE0819E271B
:10126000F80190832F5F3F4F2031310549F76150DE
:10127000B9CF81E0DF91CF911F910F9108958091B7
:10128000C00087FFFCCF8091C0008F778093C000A3
:101290008091C60008959091C00095FFFCCF909179
:1012A000C0009F7D9093C0008093C60008958FEF8B
:1012B0000895813019F48091C80004C0811106C0DE
:1012C0008091C000881F8827881F089580E00895B6
:1012D000CF93DF93FC012491EC012196222351F05E
:1012E0006091FA067091FB06822F90E00E94122A0C
:1012F000CE01F0CFDF91CF91089586E084B985B912
:1013000088EF8AB980EF8BB982E08DB908950C948B
:101310007D098F3F09F46CC0E82FE7704E2F50E035
:101320004730510508F064C0FA01E057FF4F869539
:10133000869586950C94902942B121E030E0B90160
:1013400002C0660F771F8A95E2F7CB01842B82B922
:101350004DC045B121E030E0B90102C0660F771FF2
:101360008A95E2F7CB01842B85B940C048B121E0D2
:1013700030E0B90102C0660F771F8A95E2F7CB0112
:10138000842B88B933C04BB121E030E0B90102C0F1
:10139000660F771F8A95E2F7CB01842B8BB926C0A5
:1013A0004EB121E030E0B90102C0660F771F8A9587
:1013B000E2F7CB01842B8EB919C041B321E030E0B4
:1013C000B90102C0660F771F8A95E2F7CB01842B23
:1013D00081BB0CC044B321E030E0B90102C0660F0C
:1013E000771F8A95E2F7CB01842B84BB81E00895B7
:1013F0008FEF08958F3F09F473C0E82FE7704E2FE9
:1014000050E04730510508F06BC0FA01E956FF4F34
:101410008695869586950C94902942B121E030E01E
:10142000B90102C0660F771F8A95E2F7CB0180955C
:10143000842382B953C045B121E030E0B90102C034
:10144000660F771F8A95E2F7CB018095842385B9D3
:1014500045C048B121E030E0B90102C0660F771FF6
:101460008A95E2F7CB018095842388B937C04BB1C8
:1014700021E030E0B90102C0660F771F8A95E2F7DC
:10148000CB01809584238BB929C04EB121E030E097
:10149000B90102C0660F771F8A95E2F7CB018095EC
:1014A00084238EB91BC041B321E030E0B90102C0F2
:1014B000660F771F8A95E2F7CB018095842381BB65
:1014C0000DC044B321E030E0B90102C0660F771FC0
:1014D0008A95E2F7CB018095842384BB81E008954F
:1014E0008FEF08958F3F31F1E82FE7704E2F50E0D6
:1014F00047305105F8F4FA01E256FF4F282F2695A0
:10150000269526950C94902990B10BC093B109C0F3
:1015100096B107C099B105C09CB103C09FB101C08D
:1015200092B3892F90E002C0959587952A95E2F7AE
:10153000817008958FEF08958F3F09F406C1E82F59
:10154000E7704E2F50E04730510508F0FEC0FA0119
:10155000EB55FF4F8695869586950C94902920B182
:1015600030E0082E02C0359527950A94E2F742B183
:1015700020FD0BC021E030E0B90102C0660F771FEB
:101580008A95E2F7CB01842B0BC021E030E0B90152
:1015900002C0660F771F8A95E2F7CB0180958423FE
:1015A00082B916C023B130E0082E02C035952795C8
:1015B0000A94E2F745B120FD0DC021E030E0B90109
:1015C00002C0660F771F8A95E2F7CB01842B85B99D
:1015D00081E0089521E030E0B90102C0660F771F75
:1015E0008A95E2F7CB0180958423F1CF26B130E0D4
:1015F000082E02C0359527950A94E2F748B120FDE0
:101600000BC021E030E0B90102C0660F771F8A9558
:10161000E2F7CB01842B0BC021E030E0B90102C01E
:10162000660F771F8A95E2F7CB018095842388B9EE
:10163000CFCF29B130E0082E02C0359527950A9406
:10164000E2F74BB120FD0BC021E030E0B90102C050
:10165000660F771F8A95E2F7CB01842B0BC021E040
:1016600030E0B90102C0660F771F8A95E2F7CB011F
:10167000809584238BB9ACCF2CB130E0082E02C00A
:10168000359527950A94E2F74EB120FD0BC021E075
:1016900030E0B90102C0660F771F8A95E2F7CB01EF
:1016A000842B0BC021E030E0B90102C0660F771F28
:1016B0008A95E2F7CB01809584238EB989CF2FB12B
:1016C00030E0082E02C0359527950A94E2F741B321
:1016D00020FD0BC021E030E0B90102C0660F771F8A
:1016E0008A95E2F7CB01842B0BC021E030E0B901F1
:1016F00002C0660F771F8A95E2F7CB01809584239D
:1017000081BB66CF22B330E0082E02C03595279505
:101710000A94E2F744B320FD0BC021E030E0B901A8
:1017200002C0660F771F8A95E2F7CB01842B0BC0AE
:1017300021E030E0B90102C0660F771F8A95E2F719
:10174000CB018095842384BB43CF8FEF08958F3FD7
:1017500009F4D5C0E82FE7704E2F50E0611167C043
:101760004730510508F0CBC0FA01E455FF4F86958C
:10177000869586950C94902941B121E030E0B9011D
:1017800002C0660F771F8A95E2F7CB01809584230C
:1017900065C044B121E030E0B90102C0660F771F97
:1017A0008A95E2F7CB018095842365C047B121E09B
:1017B00030E0B90102C0660F771F8A95E2F7CB01CE
:1017C0008095842365C04AB121E030E0B90102C0B0
:1017D000660F771F8A95E2F7CB018095842365C059
:1017E0004DB121E030E0B90102C0660F771F8A9544
:1017F000E2F7CB018095842365C040B321E030E05F
:10180000B90102C0660F771F8A95E2F7CB01809578
:10181000842365C043B321E030E0B90102C0660F04
:10182000771F8A95E2F7CB018095842365C0473006
:10183000510508F064C0FA01ED54FF4F8695869576
:1018400086950C94902941B121E030E0B90102C0A5
:10185000660F771F8A95E2F7CB01842B81B94DC0C3
:1018600044B121E030E0B90102C0660F771F8A95CC
:10187000E2F7CB01842B84B940C047B121E030E0CE
:10188000B90102C0660F771F8A95E2F7CB01842B5E
:1018900087B933C04AB121E030E0B90102C0660F18
:1018A000771F8A95E2F7CB01842B8AB926C04DB108
:1018B00021E030E0B90102C0660F771F8A95E2F798
:1018C000CB01842B8DB919C040B321E030E0B901C0
:1018D00002C0660F771F8A95E2F7CB01842B80BB8D
:1018E0000CC043B321E030E0B90102C0660F771F9E
:1018F0008A95E2F7CB01842B83BB81E008958FEFBB
:101900000895811106C080B18695817091E0892784
:1019100008958FEF0895009711F483E20DC0813090
:10192000910511F48BE208C08230910511F483E334
:1019300003C0039729F48BE30E949C0A81E0089579
:101940008FEF0895009711F483E20DC08130910567
:1019500011F48BE208C08230910511F483E303C0D7
:10196000039729F48BE30E94890981E008958FEFA2
:101970000895009711F483E20DC08130910511F4B0
:101980008BE208C08230910511F483E303C0039712
:1019900029F48BE30E94FA0981E008958FEF0895FE
:1019A000882319F085B78F7E02C085B7806185BF17
:1019B00081E008959091C80095FFFCCF8093CE0000
:1019C00008959093C5008093C40086E08093C20080
:1019D000E1ECF0E080818B7F8083A0ECB0E08C9123
:1019E00082608C9380818861808308959093CD007C
:1019F0008093CC0086E08093CA00E9ECF0E080811F
:101A00008B7F8083A8ECB0E08C9182608C93808186
:101A1000886180830895CF93DF930E94E10C6FE388
:101A200079E08BE499E00E94C729C8EFD6E09B8358
:101A30008A836FE379E08BE499E00E94C729998358
:101A40008883DF91CF9108958091C80087FFFCCFF4
:101A50008091C8008F778093C8008091CE00089550
:101A600000000000000000000197D1F708950C94D9
:101A7000222B0E942A2B0895EF92FF920F931F931F
:101A8000CF93DF937C0180E090E00E94222B182FFF
:101A9000F701838381E090E00E94222B082FF70159
:101AA000828382E090E00E94222BD82FF70181836D
:101AB00083E090E00E94222BC82FF701808384E00E
:101AC00090E00E94222B100FD10FCD0F8C1711F038
:101AD0008FEF01C081E0DF91CF911F910F91FF90B7
:101AE000EF900895CF93DF93EC0185E090E00E94A2
:101AF000222B888381E0DF91CF910895FC016081E2
:101B000086E090E00E942A2B81E00895CF93DF9336
:101B1000EC0186E090E00E94222B888381E0DF9137
:101B2000CF9108950F931F93CF93DF938C01C0E063
:101B3000D0E0CE0108960E94222BF80181938F01FC
:101B40002196C031D105A9F781E0DF91CF911F9196
:101B50000F9108950F931F93CF93DF938C01C0E0F3
:101B6000D0E0F80161918F01CE0108960E942A2BE6
:101B70002196C031D105A9F781E0DF91CF911F9166
:101B80000F910895CF93DF93EC0187E090E00E94DE
:101B9000222B888381E0DF91CF910895FC01608141
:101BA00087E090E00E942A2B81E00895F894089540
:101BB000789408950E94D60DFFCFCF93DF93CDB7D1
:101BC000DEB7A3970FB6F894DEBF0FBECDBF0E945D
:101BD000F315809385068F3F21F460E08EE00E942C
:101BE0003B140E94A42480FF04C060E086E00E94B1
:101BF0003B140E94BB268F3F31F40E949E2660E07A
:101C000080E10E943B140E94AC261092880610923C
:101C100096061092950610928706109286061092EC
:101C200097060E94800F109294068FEF8093810692
:101C3000809383068093820680E090E033E62FEF66
:101C4000FC01E855FA4F328720878B96873D910536
:101C5000B9F7E1EDF6E0CF01059694838383F7832E
:101C6000E683FC0186E0EA3EF807A9F71092D30666
:101C70001092D2061092EE061092ED0610928B068C
:101C800010928A0681ED96E09093A7058093A605B1
:101C900061EC7EE1CE0101960E94DC2640E850E036
:101CA00065EC74E0CE0101960E94E02685E5809304
:101CB000C50419861C861D861E861F86188A198AE9
:101CC0001A8A1B8A1C8A1D8A1E8A1F8A188E198EE0
:101CD0001A8E1B8E1C8E1D8E1E8E1F8E18A219A290
:101CE0001AA21BA281E0888792E09A878B87CE0197
:101CF00001960E94F619A3960FB6F894DEBF0FBEA8
:101D0000CDBFDF91CF91089500EB15E0C0E0F80161
:101D1000D080FFEFDF1222C0CF5F055D1F4FC530BF
:101D2000B1F70E94E5182BE28202C0011124FC01E8
:101D3000E855FA4F828580939706F0939606E093D4
:101D40009506F0938706E0938606809388060E94A6
:101D500052270E943C270E94562716C080EBE82E8F
:101D600085E0F82ED0E0CD1741F0F7018081D81240
:101D700004C06D2D85E00E943B14DF5FFBE2EF0E97
:101D8000F11CD53081F7C8CFFFCFCF92DF92EF9211
:101D9000FF920F931F93CF93DF93EC018B017A0196
:101DA0008985823021F080918406888301C0188261
:101DB00080918406853020F060E087E00E943B142B
:101DC0008985823029F0809184068F5F8093840614
:101DD00080918406811103C081E08093840638815C
:101DE0002BE23203F0011124E855FA4F11830083EE
:101DF0008885828738813203F0011124E855FA4F33
:101E000083E0818738813203F0011124E855FA4FCD
:101E10003087088102038001112408551A4FF80108
:101E20001582CE010B960E94531EF80161A372A386
:101E300083A394A38B859C85AD85BE858833994803
:101E4000A144B10520F0688186E10E943B14C8805E
:101E5000DD24C7FCD094CE014B960E94531E1BE29A
:101E60001C9DF0011D9DF00D1124E855FA4F658B66
:101E7000768B878B908F28812103C00111249C01D0
:101E800028553A4F6901F901458956896789708D4E
:101E900081A192A1A3A1B4A1840F951FA61FB71F72
:101EA000818F928FA38FB48FCE0143960E94531ED1
:101EB000F60165A376A387A390A728812103F001EB
:101EC0001124E855FA4F85A196A1A7A1B0A5858F49
:101ED000968FA78FB0A381E090E092A781A7F382AD
:101EE000E2828487DF91CF911F910F91FF90EF9055
:101EF000DF90CF9008950C94DB1E85E690E0089566
:101F000010929E0310929F031092A0031092A103BF
:101F10001092A2031092A3031092A4031092A5039F
:101F2000EEE2F4E080E090E01082118212821382EF
:101F300010861186128613861482158216821782E5
:101F40001486158616861786108A118A128A138AB5
:101F5000108E118E128E138EDC01A25DBB4F5C962B
:101F60001C925C975D961C927E964E9686399105E2
:101F7000D9F608950F931F93EEE9F3E0A82FB0E090
:101F800023EB36EE4EE050E00E94F42804811581E8
:101F900026813781DC01CB01800F911FA21FB31F67
:101FA00084839583A683B783CF011F910F910C94EF
:101FB000201DEEE9F3E04081518162817381DC01F3
:101FC0004D935D936D937C93139744815581668106
:101FD0007781FC01448355836683778308952EE1DE
:101FE000829FC0011124FC01E25DFB4F858D813091
:101FF00039F0848D8F5F848F8F3F11F481E0858F5E
:1020000008952EE1829FC0011124FC01E25DFB4F87
:10201000858D8130B1F0148A158A168A178A8089D5
:102020009189A289B3890196A11DB11D808B918BE5
:10203000A28BB38B8E3F9F4FAF4FBF4F11F481E008
:10204000858F08950F931F932EE1829FC001112465
:10205000FC01E25DFB4F858D813071F1808D918DAA
:10206000A28DB38D0196A11DB11D808F918FA28F7E
:10207000B38F462F50E060E070E00489158926890F
:102080003789040F151F261F371F048B158B268BCE
:10209000378B0081118122813381400F511F621FD4
:1020A000731F40835183628373838E3F9F4FAF4F73
:1020B000BF4F11F481E0858F1F910F910895CF924A
:1020C000DF92EF92FF92282F30E09EE1899FF0018E
:1020D0001124E25DFB4F858D813009F44BC0462F02
:1020E00050E060E070E084899589A689B789840F03
:1020F000951FA61FB71F84879587A687B787C080BF
:10210000D180E280F3804C0D5D1D6E1D7F1D4083EC
:102110005183628373834481558166817781411540
:1021200051056105710529F084179507A607B707C2
:1021300060F44EE1429FF001439FF00D1124E25DF7
:10214000FB4F84839583A683B7834EE1429FF001C2
:10215000439FF00D1124E25DFB4F40855185628560
:102160007385481759076A077B0720F48087918792
:10217000A287B387FF90EF90DF90CF9008958F9262
:102180009F92AF92BF92CF92DF92EF92FF920F9306
:102190001F93CF93DF93CDB7DEB728970FB6F89490
:1021A000DEBF0FBECDBF182F85E992E00E946809FF
:1021B000A12EB12C1F921F9385EF92E09F938F93D6
:1021C0000E944A2A0F900F900F900F90111152C049
:1021D0008AE792E00E946809CE0101960E94371CAE
:1021E0006D817E818F819885E0E4CE2EE2E4DE2E43
:1021F000EFE0EE2EF12CA70196010E940F295F93CC
:102200004F933F932F938C818F938B818F938A81F0
:102210008F9389818F9308EF12E01F930F930E9491
:102220004A2A89E592E00E9468096091A2037091B0
:10223000A3038091A4039091A503A70196010E9496
:102240000F295F934F933F932F938091A1038F9317
:102250008091A0038F9380919F038F9380919E0321
:102260008F931F930F930E944A2A0FB6F894DEBFF4
:102270000FBECDBF88E492E00E9468098EE18A9D7E
:1022800080018B9D100D1124025D1B4FF8016081B0
:102290007181828193810E941C1E29833A834B8322
:1022A0005C836D837E838F8398876D817E818F8130
:1022B000988520E4822E22E4922E2FE0A22EB12CCB
:1022C000A50194010E940F295F934F933F932F9391
:1022D0008C818F938B818F938A818F9389818F9348
:1022E00038EFE32E32E0F32EFF92EF920E944A2A5B
:1022F0008DE292E00E946809F8016481758186810F
:1023000097810E941C1E29833A834B835C836D83D3
:102310007E838F8398876D817E818F819885A501CB
:1023200094010E940F295F934F933F932F938C81C9
:102330008F938B818F938A818F9389818F9348E0CC
:10234000C42E43E0D42EDF92CF920E944A2AF80195
:1023500064857585868597850E941C1E29833A832E
:102360004B835C836D837E838F8398876D817E81B1
:102370008F819885A50194010E940F295F934F9347
:102380003F932F938C818F938B818F938A818F932F
:1023900089818F93DF92CF920E944A2AF80160854B
:1023A0007185828593850E941C1E29833A834B8305
:1023B0005C836D837E838F8398876D817E818F811F
:1023C0009885A50194010E940F295F934F933F9335
:1023D0002F938C818F938B818F938A818F938981A7
:1023E0008F93FF92EF920E944A2A0FB6F894DEBFB5
:1023F0000FBECDBF8DE192E00E946809F801709692
:1024000083818F9382818F9381818F93F80180895B
:102410008F935AE1E52E53E0F52EFF92EF920E9442
:102420004A2A8AE092E00E946809F801789683813E
:102430008F9382818F9381818F93F801808D8F9309
:10244000FF92EF920E944A2A81EF91E00E94680970
:10245000F801848D1F928F936EE1E62E63E0F62ED5
:10246000FF92EF920E944A2A84ED91E00E9468094F
:10247000F801858D1F928F93FF92EF920E944A2A56
:1024800081ED91E00E9468090FB6F894DEBF0FBE9F
:10249000CDBF28960FB6F894DEBF0FBECDBFDF913B
:1024A000CF911F910F91FF90EF90DF90CF90BF9051
:1024B000AF909F908F900895CF9384EB91E00E940E
:1024C0006809C0E08C2F0E94BF10CF5FC530D1F7E4
:1024D000CF910895DB01853008F054C09EE1899FBB
:1024E000F0011124E25DFB4F4081518162817381D3
:1024F0004D935D936D937C931397448155816681D1
:10250000778114964D935D936D937C9317974085D7
:1025100051856285738518964D935D936D937C9379
:102520001B9744855585668577851C964D935D93ED
:102530006D937C931F974089518962897389509666
:102540004D935D936D937C93539744895589668928
:10255000778954964D935D936D937C935797408DF7
:10256000518D628D738D58964D935D936D937C93D1
:102570005B97848D5C968C935C97858D5D968C9330
:1025800081E008958FEF0895E0919506F091960609
:1025900084870895E0919506F091960684850895C4
:1025A000CF93DF93D82FC62F80E092E00E94370DA3
:1025B0008F5F8F3F19F08093760302C010927603ED
:1025C0002091760336E0239FC00111246D2F8F5F89
:1025D0009D4F0E94390D8091760346E0849FC00193
:1025E00011246C2F8E5F9D4F0E94390D2091760330
:1025F00040918C0650918D0660918E0670918F06E9
:10260000672F77278827992746E0249F9001112478
:10261000C9018D5F9D4F0E94390D20917603409135
:102620008C0650918D0660918E0670918F068827DA
:10263000992746E0249F90011124C9018C5F9D4F8A
:102640000E94390D2091760340918C0650918D06A1
:1026500060918E0670918F069927872F762F652FB0
:1026600046E0249F90011124C9018B5F9D4F0E9479
:10267000390D8091760326E0829FC001112460917C
:102680008C068A5F9D4F0E94390D6091760380E031
:1026900092E0DF91CF910C94390DFC018091C4043C
:1026A000882331F0DB018C9380917903808381E072
:1026B00008958091C404882309F483C08CEC94E0CD
:1026C0000E946809809179031F928F9385EF92E0B1
:1026D0009F938F930E944A2A88EC94E00E94680995
:1026E0000F900F900F900F908091C404883110F0DC
:1026F0001092C404E091C4048E2F90E0FC01319745
:10270000E631F10508F046C0E654FF4F0C949029DD
:102710008CE894E041C085E694E03EC081E594E019
:102720003BC08BE394E038C080E294E035C08AE09F
:1027300094E032C082EF93E02FC08FED93E02CC085
:102740008CEC93E029C08EEA93E026C089E893E000
:1027500023C08DE793E020C082E693E01DC083E5AF
:1027600093E01AC08FE393E017C08EE293E014C0A9
:102770008AE193E011C08AEF92E00EC082EE92E00F
:102780000BC087EC92E008C086EB92E005C087EAB8
:1027900092E002C080EA92E00E9468096091FA0625
:1027A0007091FB068DE090E00E94122A6091FA067B
:1027B0007091FB068AE090E00E94122A8091C40486
:1027C000089580E0089513BC1092B60018BC17BCA1
:1027D00016BC15BC14BC1DBA1CBA1BBA10929B00C7
:1027E00010929A0010929900109298001092950001
:1027F00010929400109291001092900018BA1092CA
:1028000071001092B4001092B3001092B2001092B6
:10281000B100E0EBF0E01082108217BA1092700065
:102820008FEF84BF08950E94D60D0E949E2680914E
:10283000C404803171F08351823058F00E94E31358
:1028400088ED94E00E9468090E94AC260E94D60D93
:10285000FFCF1092C40408958093C404E0919506BC
:10286000F09196066085609379030E94D0120E94D1
:1028700059130C9413148093C404609379030E9439
:10288000D0120E9459130C941314CF93DF931F920C
:10289000CDB7DEB719828981843640F480ED97E0A8
:1028A0000E94DA2289818F5F8983F5CF0F90DF91B3
:1028B000CF91089581E090E00E94B90C0E944514E8
:1028C0000E9445140E94451481E090E00E94A20CF1
:1028D0000C94451481E090E00E94B90C0E944514CC
:1028E00081E090E00E94A20C0C944514FF920F939B
:1028F0001F93CF93DF9300D01F92CDB7DEB71F9207
:102900008F9385EF92E09F938F938E010F5F1F4F00
:102910001F930F930E94942A0F900F900F900F9087
:102920000F900F90F12CF80101900020E9F73197FA
:10293000E01BF10B8F2D90E08E179F0708F05DC014
:10294000F801E80FF91FE0818E2F90E0FC01F0976D
:10295000EA30F10508F049C0E053FF4F0C9490298C
:102960000E945A1402C00E946A140E945A140E94C3
:102970005A140E945A140E945A1437C00E946A14B2
:102980000E946A14F4CF0E946A140E946A140E9482
:102990006A14EFCF0E946A140E946A140E946A149B
:1029A0000E946A14E8CF0E946A1402C00E945A145E
:1029B0000E946A1404C00E945A140E945A140E9471
:1029C0006A1406C00E945A140E945A140E945A1493
:1029D0000E946A1408C00E945A140E945A140E944D
:1029E0005A140E945A140E946A140E9445140E94AC
:1029F00045140E944514F39496CF0F900F900F90BA
:102A0000DF91CF911F910F91FF9008956F927F9268
:102A10008F929F92AF92BF92CF92DF92EF92FF92EE
:102A20000F931F93CF93DF9388EE94E00E94680981
:102A3000E0919506F09196068085282F332727FD93
:102A400030953F938F9381E293E09F938F930E9401
:102A50004A2AE0919506F0919606C281D381DF93D0
:102A6000CF9385E593E09F938F930E944A2A8881B4
:102A70001F928F938AE293E09F938F930E944A2A3A
:102A8000E0919506F091960681818F9380818F93D6
:102A900087E393E09F938F930E944A2A8091960642
:102AA0008F93809195068F9381E493E09F938F930A
:102AB0000E944A2AC8EAD5E0EDB7FEB774960FB671
:102AC000F894FEBF0FBEEDBF00E010E081E5682E78
:102AD00083E0782E9AE2892E93E0992E27E3A22EA6
:102AE00023E0B22E31E4C32E33E0D32EEA80FB8004
:102AF000FF92EF921F930F937F926F920E944A2A48
:102B0000F70180811F928F939F928F920E944A2A91
:102B100089818F9388818F93BF92AF920E944A2AB6
:102B2000DF93CF93DF92CF920E944A2A0F5F1F4F0D
:102B3000AB96EDB7FEB772960FB6F894FEBF0FBE18
:102B4000EDBF0530110591F6DF91CF911F910F91E7
:102B5000FF90EF90DF90CF90BF90AF909F908F90BD
:102B60007F906F900895CF93DF93E0919506F09159
:102B70009606C281D3818881853539F00E94061579
:102B800081E00E942C1485E58883E0919506F09100
:102B90009606808191818115924438F00E94061535
:102BA00082E1DF91CF910C942C14DF91CF910895A5
:102BB0002BE28202C0011124FC01E855FA4FA281E8
:102BC000B3818C91853519F085E58C9308C080819F
:102BD00091818115924428F082E10E942C148FEF9C
:102BE000089581E008950F931F934091A60350919B
:102BF000A7036091A8037091A90380E090E08A0187
:102C00009B01082E04C036952795179507950A94C1
:102C1000D2F700FD19C001E010E020E030E0082EFE
:102C200004C0000F111F221F331F0A94D2F7402B3C
:102C3000512B622B732B4093A6035093A7036093F1
:102C4000A8037093A90305C0019680329105B9F6D7
:102C50008FEF1F910F910895E0919506F0919606E0
:102C600065857685878590890895CF92DF92EF926A
:102C7000FF920F931F93CF93DF93C12CD12C76013A
:102C8000C394082E04C0CC0CDD1CEE1CFF1C0A945F
:102C9000D2F74091A6035091A7036091A8037091C9
:102CA000A9034C215D216E217F21452B462B472B0B
:102CB00009F460C0082F0E94D60DE1EBF5E0B701E2
:102CC000A601409550956095709513E0DF0111972E
:102CD0008C918F3F39F184819581A681B7818C15C4
:102CE0009D05AE05BF0551F4108611861286138628
:102CF0009F0122503109E901188210838423952312
:102D0000A623B72384839583A683B7838085918583
:102D1000A285B38584239523A623B7238087918733
:102D2000A287B387BB96D6E0E838FD0779F68EEF29
:102D30009FEFAFEFBFEF04C0880F991FAA1FBB1F03
:102D40000A95D2F74091A6035091A7036091A8037A
:102D50007091A90384239523A623B7238093A60308
:102D60009093A703A093A803B093A9030E94D80D42
:102D700081E001C08FEFDF91CF911F910F91FF9004
:102D8000EF90DF90CF9008950F931F9341E050E0B4
:102D900060E070E08A019B0104C0000F111F221F38
:102DA000331F8A95D2F7D901C801E0919506F091B9
:102DB0009606458556856785708904231523262345
:102DC0003723012B022B032BD1F080959095A095F2
:102DD000B095482359236A237B2345875687678705
:102DE000708B418952896389748984239523A62332
:102DF000B723818B928BA38BB48B81E001C08FEFC3
:102E00001F910F910895282F4091A6035091A70379
:102E10006091A8037091A903082E04C07695679568
:102E2000579547950A94D2F740FF1DC0E09195064B
:102E3000F091960681E090E0A0E0B0E004C0880F39
:102E4000991FAA1FBB1F2A95D2F74585568567850E
:102E50007089842B952BA62BB72B85879687A78700
:102E6000B08B81E008958FEF0895CF92DF92EF92BB
:102E7000FF92CF93C12CD12C7601C39404C0CC0C0B
:102E8000DD1CEE1CFF1C8A95D2F78091A603909161
:102E9000A703A091A803B091A9038C219D21AE2185
:102EA000BF21892B8A2B8B2B11F481E044C00E9417
:102EB000D60DEFEAF5E0A1EBB5E0C0E083E090814C
:102EC0009130B9F442855385648575854C215D2127
:102ED0006E217F21452B462B472B59F08C9316866C
:102EE0001786108A118A1082C286D386E486F586F8
:102EF000C1E090819230A1F4428553856485758547
:102F00004C155D056E057F0559F48C931686178662
:102F1000108A118A10821286138614861586C1E0E3
:102F2000BB969B9696E0E638F90749F60E94D80DC5
:102F3000C11105C082E00E94C4128FEF01C081E080
:102F4000CF91FF90EF90DF90CF9008950F931F9354
:102F5000E0919506F09196060585168527853089BE
:102F600006231723282339230115110521053105CF
:102F700011F1DC01CB01818B928BA38BB48B21E00F
:102F800027830090850604C0B695A79597958795E9
:102F90000A94D2F780FF03C00E945E1B04C080E049
:102FA00090E00E942F1BE0919506F0919606018912
:102FB000128923893489C901B8011F910F9108959D
:102FC00080E090E0089521E08158964009F420E0E7
:102FD000822F819508950E94E3178F3F11F481E0BD
:102FE00003C0813029F482E00E94C4128FEF08955B
:102FF000992787FD9095FC01EE0FFF1F8E0F9F1FF5
:10300000FC01EF57F94F82810895EF92FF920F93E1
:103010001F93CF93DF931F92CDB7DEB70E94E317C4
:103020008F3F11F481E003C0813029F482E00E94D7
:10303000C4128FEF41C089830E94D60D8981E82E8A
:10304000FF24E7FCF0948701000F111FF801EE0D3B
:10305000FF1DEF57F94F9281911116C0E09195062F
:10306000F0919606978192609783992787FD9095B6
:10307000A92FB92F818B928BA38BB48B0E94D80D73
:1030800080E090E00E942F1B0E0D1F1DD801AF574E
:10309000B94F12968C911297815012968C93129779
:1030A000E0919506F091960611968C91838781E0C8
:1030B00084830E94D80D81E00F90DF91CF911F9102
:1030C0000F91FF90EF9008950F931F93CF93DF938D
:1030D0001F92CDB7DEB70E94E3178F3F11F481E056
:1030E00003C0813029F482E00E94C4128FEF44C0F3
:1030F000482F552747FD50959A01220F331F240F63
:10310000351F89010F57194FF80122819081291726
:1031100094F589830E94D60DF80192819F5F928376
:10312000E0919506F09196061482EFEAF5E0898128
:10313000992787FD9095A92FB92F23E03081323050
:1031400099F44285538564857585481759076A0740
:103150007B0751F4228316861786108A118A108203
:103160001286138614861586BB9636E0E638F3077A
:1031700029F70E94D80D81E00F90DF91CF911F9128
:103180000F9108950E94E3178F3F11F481E003C06F
:10319000813029F482E00E94C4128FEF08959927AC
:1031A00087FD9095FC01EE0FFF1F8E0F9F1FFC0106
:1031B000EF57F94F8FEF808382838183809194064C
:1031C00081508093940681E00895E0918A06F09101
:1031D0008B0680810895E0918A06F0918B063097E6
:1031E00021F00380F481E02DFACF0895AF92BF92D1
:1031F000CF92DF92EF92FF920F931F93CF93DF93C3
:10320000E091A605F091A705309709F494C00091CC
:103210008A0610918B060115110509F44CC0D801DE
:103220004BE2582F54039001112428553A4F79014D
:103230009AE0E90EF11C6901C4E0CC0ED11C5901E1
:10324000DBE0AD0EB11C2C9130E0429FB001439FFA
:10325000700D112468557A4FEB019C81992329F058
:103260005B85E7019881591740F1E6019881992320
:1032700069F0429FB001439F700D112468557A4F49
:10328000EB015A85E50198815917B8F0429FB001CA
:10329000439F700D11249B0128553A4FE9012A855F
:1032A000E7019881291748F013960D90BC91A02D45
:1032B000109749F602C0A0E0B0E08083C381D481BA
:1032C000D093A705C093A605A017B107B1F4109736
:1032D00049F0B483A383128211821296FC93EE9379
:1032E000119706C01482138212821182FA83E98335
:1032F000F0938B06E0938A061EC0AC17BD0779F0E9
:1033000011968D919C91129792838183B483A383AC
:103310001196CD91DC911297FC83EB8308C0148247
:10332000138211968D919C911297928381831296AC
:10333000FC93EE931197DF91CF911F910F91FF9026
:10334000EF90DF90CF90BF90AF900895CF93DF9331
:10335000E0918A06F0918B06309709F444C09927D2
:1033600087FD9095208130E02817390781F4A381EB
:10337000B481B0938B06A0938A0612961C921E927B
:10338000119718C00380F481E02D309761F12081FE
:1033900030E028173907B1F7C181D2818381948148
:1033A0009C838B83A381B481109721F01296DC93C8
:1033B000CE931197A091A605B091A705109739F467
:1033C000F093A705E093A605148213820AC0B48384
:1033D000A3831296FC93EE931197F093A705E093C5
:1033E000A60512821182DF91CF910895EF92FF928C
:1033F0000F931F93CF93DF93EC014B815C81698125
:103400007A818D819E810E94FE262F81222371F078
:103410004B815C81E12CF12C00E010E020E030E0F9
:10342000BC01CE010E94C50E1F820CC0E8812BE2B8
:10343000E202F0011124E855FA4F21852330B9F456
:1034400091838083E8818BE2E802F0011124E85542
:10345000FA4F85899689A789B08D892B8A2B8B2B6A
:1034600041F482E0818788810E94F61802C08FEFC4
:1034700001C081E0DF91CF911F910F91FF90EF90FC
:1034800008951F93CF93DF93CDB7DEB728970FB67C
:10349000F894DEBF0FBECDBF29833A834B835C8394
:1034A0006D837E838F8398870E94D60D0E94282487
:1034B000182FCE0101960E94531E6330710598F0BB
:1034C000E0919506F0919606212F30E0620F731F70
:1034D000CB01A0E0B0E0858B968BA78BB08F0E94CC
:1034E000D80D81E001C08FEF28960FB6F894DEBFAB
:1034F0000FBECDBFDF91CF911F9108950E94D126BD
:10350000E0919506F091960685818111F7CF089597
:10351000CF930E94B3150E94D60DE0919506F091CD
:10352000960681E090E092A781A785830E942824D7
:10353000C82F883F80F40E94C2232C2F30E02F5FD9
:103540003F4F90E02817390734F482E08C0F8093C6
:103550002D040E94C6230E94D80D0E947E1A81E08D
:10356000CF910895E0919506F091960680850E948E
:10357000A619E0919506F091960684E081870E9455
:10358000881A81E00895CF93DF93EC010E94B31570
:10359000209711F4C1E0D0E00E94D60DE09195068D
:1035A000F091960681E08583D2A7C1A70E942824C6
:1035B000C82F883F80F40E94C2232C2F30E02F5F59
:1035C0003F4F90E02817390734F482E08C0F809346
:1035D0002D040E94C6230E94D80D0E947E1A81E00D
:1035E000DF91CF910895EF92FF920F931F93CF93A6
:1035F0008C010E94D60DE0919506F091960681E02F
:1036000085830E942824C82FE0919506F0919606A4
:10361000E82EF12CC701800F911FA0E0B0E0858B50
:10362000968BA78BB08FC83F78F40E94C2239FEF80
:10363000E91AF90A90E0E816F90634F482E08C0FF2
:1036400080932D040E94C6230E94D80D0E947E1AEA
:1036500081E0CF911F910F91FF90EF900895CF934C
:10366000DF93EC010E94D60DE0919506F09196064D
:1036700021E02583CE01A0E0B0E0858B968BA78B5F
:10368000B08F0E942824C82F883F80F40E94C22354
:103690002C2F30E02F5F3F4F90E02817390734F48C
:1036A00082E08C0F80932D040E94C6230E94D80DC7
:1036B0000E947E1A81E0DF91CF910895CF930E94FE
:1036C000D60DE0919506F091960681E0858386837C
:1036D0000E942824C82F883F80F40E94C2232C2FE8
:1036E00030E02F5F3F4F90E02817390734F482E035
:1036F0008C0F80932D040E94C6230E94D80D0E9437
:103700007E1A81E0CF9108951F93CF93DF93CDB7B9
:10371000DEB728970FB6F894DEBF0FBECDBF298362
:103720003A834B835C836D837E838F8398870E946B
:10373000B3150E94D60DE0919506F091960681E0B2
:10374000858381E090E092A781A70E942824182F0A
:10375000CE0101960E94531EE0919506F0919606C7
:10376000DC01CB01810F911DA11DB11D858B968BB5
:10377000A78BB08F183F80F40E94C223212F30E026
:103780002F5F3F4F90E02817390734F482E0810F14
:1037900080932D040E94C6230E94D80D0E947E1A99
:1037A00081E028960FB6F894DEBF0FBECDBFDF9143
:1037B000CF911F9108958F929F92AF92BF92CF9217
:1037C000DF92EF92FF920F931F93CF93DF93CDB7CA
:1037D000DEB760970FB6F894DEBF0FBECDBF298766
:1037E0003A874B875C876D877E878F87988BCE0162
:1037F00001960E94371C89809A80AB80BC80CD8066
:10380000DE80EF80F88409851A852B853C854D85FF
:103810005E856F857889CE0109960E94941C8F3F42
:1038200061F029853A854B855C856D857E858F8520
:1038300098890E94841B81E001C08FEF60960FB6CB
:10384000F894DEBF0FBECDBFDF91CF911F910F91D6
:10385000FF90EF90DF90CF90BF90AF909F908F90B0
:103860000895E0919506F0919606808508950F934E
:103870001F93CF93DF93EC011C821D821E821F8257
:1038800080918C0690918D06A0918E06B0918F0646
:1038900088839983AA83BB83809190069091910637
:1038A000A0919206B09193068C839D83AE83BF83D3
:1038B0000E942824A82FB0E023EB36EE4EE050E023
:1038C0000E94F4280C811D812E813F81DC01CB01F7
:1038D000800F911FA21FB31F8C839D83AE83BF8374
:1038E0008C819D81AE81BF8181152AEC92072AE9E6
:1038F000A2072BE3B20798F09A5CAA49BB438C83DA
:103900009D83AE83BF8388819981AA81BB81019603
:10391000A11DB11D88839983AA83BB83E1CFDF9169
:10392000CF911F910F9108958F929F92AF92BF9266
:10393000CF92DF92EF92FF920F931F93CF93DF937B
:10394000CDB7DEB760970FB6F894DEBF0FBECDBF20
:10395000FC0109831A832B833C834D835E836F8331
:10396000788789869A86AB86BC86CD86DE86EF868A
:10397000F88A09811A812B813C814D815E816F819A
:103980007885C984DA84EB84FC848D859E85AF8537
:10399000B8890C151D052E053F05F0F1C016D1069E
:1039A000E206F30691F4481759076A077B07A0F16E
:1039B000481B590B6A0B7B0B4483558366837783C3
:1039C000108211821282138225C0481759076A0794
:1039D0007B0780F401501109210931090C191D09D7
:1039E0002E093F0900831183228333835653654692
:1039F000744C08C00C191D092E093F09008311835E
:103A000022833383481B590B6A0B7B0B44835583FA
:103A10006683778381E001C08FEF60960FB6F894DC
:103A2000DEBF0FBECDBFDF91CF911F910F91FF90F1
:103A3000EF90DF90CF90BF90AF909F908F900895C0
:103A4000FC01448155816681778141158AEC5807D4
:103A50008AE968078BE3780798F05A5C6A497B43E8
:103A6000448355836683778380819181A281B3816A
:103A70000196A11DB11D80839183A283B383E1CF01
:103A800008958F929F92AF92BF92CF92DF92EF9262
:103A9000FF920F931F93CF93DF93CDB7DEB760975D
:103AA0000FB6F894DEBF0FBECDBF09831A832B83F8
:103AB0003C834D835E836F83788789869A86AB8645
:103AC000BC86CD86DE86EF86F88A09851A852B8529
:103AD0003C8549815A816B817C81400F511F621F57
:103AE000731FFC0140835183628373830D851E85A0
:103AF0002F8538894D815E816F817885400F511FF8
:103B0000621F731F44835583668377830E94201D41
:103B100081E060960FB6F894DEBF0FBECDBFDF9197
:103B2000CF911F910F91FF90EF90DF90CF90BF90BA
:103B3000AF909F908F900895ECE8F6E060837183DA
:103B400082839383248335834683578308952F92FA
:103B50003F924F925F926F927F928F929F92AF921D
:103B6000BF92CF92DF92EF92FF920F931F93FC01CF
:103B7000C080D180E280F380C114D104E104F1045B
:103B8000E1F184819581A681B78122E4C216D10436
:103B9000E104F104F0F51C012D01612C712C4301AD
:103BA000E0E08E2F90E0A0E0B0E08C159D05AE0522
:103BB000BF0588F49101A201B301C4013653454603
:103BC000544C6F4F7F4F8F4F9F4F19012A013B017C
:103BD0004C01EF5FE6CF83EBA82E96EEB92E2EE0D8
:103BE000C22ED12CE12CF12C00E010E09101A201B9
:103BF000B301C4010E9433290AC0648175818681A2
:103C0000978123EB36EE4EE050E00E940F29C90168
:103C100002C080E090E01F910F91FF90EF90DF9045
:103C2000CF90BF90AF909F908F907F906F905F905C
:103C30004F903F902F900895CF92DF92EF92FF9296
:103C4000CF93DF93CDB7DEB728970FB6F894DEBFDA
:103C50000FBECDBF6B017C012AE0F694E794D794A8
:103C6000C7942A95D1F7C982DA82EB82FC829B0144
:103C7000AC0133704427552763EB76EE8EE090E07D
:103C80000E94FF282C2D3A814B815C8128960FB62B
:103C9000F894DEBF0FBECDBFDF91CF91FF90EF90C4
:103CA000DF90CF9008952F923F924F925F926F9244
:103CB0007F928F929F92AF92BF92CF92DF92EF92BC
:103CC000FF920F931F93FC01C080D180E280F380AC
:103CD000C114D104E104F104B9F184819581A68174
:103CE000B7811C012D01612C712C4301E0E08E2F66
:103CF00090E0A0E0B0E08C159D05AE05BF0588F40E
:103D00009101A201B301C40136534546544C6F4F93
:103D10007F4F8F4F9F4F19012A013B014C01EF5FED
:103D2000E6CF83EBA82E96EEB92E2EE0C22ED12C34
:103D3000E12CF12C00E010E09101A201B301C401DB
:103D40000E943329CA010BC06481758186819781E5
:103D500023EB36EE4EE050E00E940F29CA01B90174
:103D60001F910F91FF90EF90DF90CF90BF90AF9099
:103D70009F908F907F906F905F904F903F902F908B
:103D80000895C1E00E94B3150E94C223843010F44C
:103D9000C09389060E94D1268091C504853519F00B
:103DA00088E00E942C1480917E41853559F388E08B
:103DB0000E942C14E7CF2F923F924F925F926F9206
:103DC0007F928F929F92AF92BF92CF92DF92EF92AB
:103DD000FF920F931F93CF93DF930E94D80D8AEF2A
:103DE0000E94C6230E94C2260E949021C0912D04E9
:103DF000AC2FB0E023EB36EE4EE050E00E94F4280A
:103E000000919006109191062091920630919306B0
:103E10006B017C01C00ED11EE21EF31EC701B6016C
:103E200023EB36EE4EE050E00E940F29C61AD70A67
:103E3000E80AF90AC0929006D0929106E0929206A2
:103E4000F0929306E0919506F09196068085811197
:103E500030C080918906823019F48C2F0E94BA0FED
:103E6000E0919506F091960660912D0480850E9460
:103E70002210E0919506F091960660E080850E9400
:103E80005F108091900690919106A0919206B0915A
:103E9000930600918C0610918D0620918E0630912C
:103EA0008F0653EB452E56EE552E5EE0652E712C97
:103EB00007C095816C2F9111E2CF0E942210E1CFB3
:103EC000480159014FEF841A940AA40AB40A8115D3
:103ED0005AEC95075AE9A5075BE3B507C8F06C01F2
:103EE0007D012AECD21A2AE9E20A2BE3F20AC70181
:103EF000B601A30192010E940F29A7019601261B7A
:103F0000370B480B590BDA01C90195018401D8CF51
:103F10008093900690939106A0939206B093930697
:103F200000938C0610938D0620938E0630938F0697
:103F3000E0919506F09196068581882339F1818577
:103F4000843021F18781823029F0882341F08681F5
:103F5000811102C085E001C083E0818714C083E045
:103F600081871782168285899689A789B08D892BCA
:103F70008A2B8B2B41F4818D928DA38DB48D858BF3
:103F8000968BA78BB08F80850E94A619E09195062D
:103F9000F091960685A196A1A7A1B0A5892B8A2BA1
:103FA0008B2B09F44EC08085882309F44AC0918583
:103FB000943009F446C0458D568D678D70A10091EF
:103FC0002D0410E020E030E040175107620773072E
:103FD00098F40E94EF0FE0919506F09196066085A7
:103FE00082E00E943B14E0919506F0919606158EB2
:103FF000168E178E10A208C0401B510B620B730B5C
:10400000458F568F678F70A3E0919506F0919606C5
:10401000C085858D968DA78DB0A1892B8A2B8B2B82
:1040200081F48C2F0E94EF0F6C2F83E00E943B14D1
:10403000E0919506F091960683E081878C2F0E948F
:10404000A619C1EBD5E000E61AEE312C2AEFC22EFC
:10405000D12CE12CF12C32E0232E812C912C540117
:104060008394FE01319780818F3F09F4E5C0339737
:104070001082882309F45BC08881843009F457C01A
:104080004C845D846E847F8460912D0470E080E0B8
:1040900090E0461657066806790648F0461A570A11
:1040A000680A790A4C865D866E867F8604C01C8607
:1040B0001D861E861F86488859886A887B88461612
:1040C00057066806790648F0461A570A680A790AB8
:1040D000488A598A6A8A7B8A1AC0288D398D4A8D06
:1040E0005B8D621773078407950758F429013A011D
:1040F000461A570A680A790A488A598A6A8A7B8A5C
:1041000006C00E940F29688B798B8A8B9B8B8889CC
:104110009989AA89BB89892B8A2B8B2B41F4888D9D
:10412000998DAA8DBB8D888B998BAA8BBB8B88812F
:10413000833009F081C08C859D85AE85BF85892B34
:104140008A2B8B2B09F067C0DE0112978C91FE0140
:104150003397882391F08081882379F0B501A401F9
:104160000090850604C0440F551F661F771F0A94F0
:10417000D2F7488759876A877B871C921082A8A14B
:10418000B9A1A130B10509F58C8D9D8DAE8DBF8D86
:104190008C8B9D8BAE8BBF8B288288899989AA894D
:1041A000BB898C879D87AE87BF87888D998DAA8DA7
:1041B000BB8D892B8A2B8B2B21F4CC86DD86EE865A
:1041C000FF86832D0E94F61826C04C8D5D8D6E8D66
:1041D0007F8D4C8B5D8B6E8B7F8B488C598C6A8C62
:1041E0007B8C1197A30192010E94F4286C877D8734
:1041F0008E879F87688B798B8A8B9B8B4528462877
:10420000472821F4CC86DD86EE86FF8666246394FB
:10421000712C79A268A28C859D85AE85BF8500979B
:10422000A105B10549F0A80160E070E08417950789
:10423000A607B70708F48C013394AB9685E0782E77
:1042400037100FCFE0919506F091960680850E9479
:1042500001100E94E518C82F2BE28202F001112400
:10426000E855FA4F228520939706F0938706E0934E
:1042700086068823D9F085A196A1A7A1B0A5892B90
:104280008A2B8B2B99F0858D968DA78DB0A18A3FB7
:104290009105A105B10550F4A80160E070E0841714
:1042A0009507A607B70710F48C0105C00B3F110551
:1042B00010F00AEF10E020938806F0939606E09342
:1042C000950600932D040E942824282F30E02F5FAC
:1042D0003F4F2017310740F00E942824082F10E09C
:1042E0000E5F1F4F00932D04C11110928906802F7D
:1042F0000E94C6230E944B27DF91CF911F910F91FF
:10430000FF90EF90DF90CF90BF90AF909F908F90F5
:104310007F906F905F904F903F902F900C94562716
:104320003F924F925F926F927F928F929F92AF9245
:10433000BF92CF92DF92EF92FF920F931F93CF9392
:10434000DF93CDB7DEB760970FB6F894DEBF0FBE30
:10435000CDBFCE0109960E94371C88E9482E86E021
:10436000582E612C712C93E1392ED20112968C912A
:10437000813051F5369CF001379CF00D1124ED553C
:10438000F94F89849A84AB84BC84CD84DE84EF8425
:10439000F8880081118122813381448155816681B1
:1043A0007781CE0101960E94941C8F3F69F4662D9F
:1043B00085E10E943B14D201ED91FC91309719F4F4
:1043C0000E94DA0D01C00995BFEF6B1A7B0AE3E189
:1043D0004E0E511CF3E06F16710439F660960FB65D
:1043E000F894DEBF0FBECDBFDF91CF911F910F912B
:1043F000FF90EF90DF90CF90BF90AF909F908F9005
:104400007F906F905F904F903F900895E8E9F6E0BD
:104410001282158A10A60895CF93DF938330E0F4BB
:1044200093E1899FF0011124E856F94F51834083AD
:10443000EB0188819981AA81BB8183839483A583C1
:10444000B6838C819D81AE81BF8187839087A18750
:10445000B287128281E001C08FEFDF91CF91089582
:10446000CF92DF92EF92FF920F931F93CF93DF9340
:10447000CDB7DEB728970FB6F894DEBF0FBECDBF1D
:104480008330A8F5182FCE0101960E94371C23E136
:10449000129FC00111248C010856194FF801C380E6
:1044A000D480E580F68049815A816B817C814C0DF6
:1044B0005D1D6E1D7F1D4387548765877687C78086
:1044C000D084E184F2844D815E816F8178854C0DCA
:1044D0005D1D6E1D7F1D4787508B618B728B8D55C7
:1044E000994F0E94201D81E0F801828301C08FEF67
:1044F00028960FB6F894DEBF0FBECDBFDF91CF91E7
:104500001F910F91FF90EF90DF90CF9008951F9330
:10451000CF93DF93CDB7DEB728970FB6F894DEBF01
:104520000FBECDBF833070F5182FCE0101960E94CB
:10453000371C83E1189FF0011124E856F94F43819D
:1045400054816581768189819A81AB81BC81840F98
:10455000951FA61FB71F83879487A587B6874781B6
:104560005085618572858D819E81AF81B885840F6C
:10457000951FA61FB71F8787908BA18BB28B81E0F9
:10458000828301C08FEF28960FB6F894DEBF0FBE6E
:10459000CDBFDF91CF911F910895833048F493E10F
:1045A000899FF0011124E856F94F128281E00895A5
:1045B0008FEF0895000000000000000000000000E0
:1045C000000000000000000000000000019791F7CB
:1045D000089510922101089589E0809321018DE8CA
:1045E0009CE390932901809328010895109225015E
:1045F000109224010895CF93DF9300D0CDB7DEB79A
:1046000080912401909125019A83898389819A81DF
:104610000F900F90DF91CF9108951092810008952F
:1046200081E080938100089583B5816083BD1092FD
:104630008500109284000895CF93DF9300D0CDB70A
:10464000DEB780918400909185009A838983898167
:104650009A810F900F90DF91CF910895CF92DF92C2
:10466000EF92FF92CF93DF93EC01CC0FDD1FC937A0
:104670008FEFD80710F0C0E0D0E06B01E12CF12CF7
:10468000CC0EDD1EE11CF11C81E0C816D104E80649
:10469000F10440F081E0E81AF1080E941C23C817D9
:1046A000D907D8F30E941C238C159D05D8F3DF9100
:1046B000CF91FF90EF90DF90CF9008951092B100CE
:1046C000E0E7F0E080818D7F808380818E7F808332
:1046D00008958093B2000895E0E7F0E08081836060
:1046E000808383E08093B100089583B5826083BDA9
:1046F0001092B20010927A0310922D040895CF9375
:10470000DF938EEF80932D0480E28093B60080913A
:104710002D048093B30083E087BB92E09093B000B8
:104720008093B10093B5926093BD87BB84BD83B580
:10473000826083BD1092800081E08093810010929E
:1047400085001092840083B5826083BD83B581604B
:1047500083BD10922001C4E2D1E01982188283B592
:10476000826083BD83B5816083BD0E9475231982F9
:1047700018820E946C230E94EC2210927A03DF912F
:10478000CF9108958091B3008F5F089581508093F9
:10479000B3000895811102C0109271008FEF089547
:1047A000811106C0109295001092940081E0089546
:1047B0008FEF0895811105C080919400909195002C
:1047C000089580E090E00895811105C082E0809313
:1047D000710081E008958FEF0895811135C0CB01FC
:1047E0000197059710F460932C041092900088E0D4
:1047F00080939100509399004093980030937803F0
:104800002093770380912C04813021F480919100D2
:10481000816011C0823021F48091910082600BC0D0
:10482000833021F480919100836005C0843031F49D
:104830008091910084608093910008C0853031F4AC
:10484000809191008560F7CF8FEF089581E0089502
:104850008091B20008951F920F920FB60F9211240B
:1048600060E08AE00E943B14FFCF0F920FB60F92D8
:104870001F922F923F924F925F926F927F928F92F0
:104880009F92AF92BF92CF92DF92EF92FF920F93DF
:104890001F932F933F934F935F936F937F938F93C8
:1048A0009F93AF93BF93CF93DF93EF93FF93A09129
:1048B0009506B09196060DB60D920EB60D921F920A
:1048C000A0912A04B0912B041E90BEBFADBF0895E5
:1048D0001F920F920FB60F9211240BB60F922F93C7
:1048E0003F934F935F936F937F938F939F93AF9378
:1048F000BF93EF93FF93E0917703F09178033097A4
:1049000011F0099504C060E08AE00E943B14FF9119
:10491000EF91BF91AF919F918F917F916F915F9137
:104920004F913F912F910F900BBE0F900FBE0F90A4
:104930001F9018951F920F920FB60F9211240F908F
:104940000FBE0F901F90189504B603FE02C080E1C1
:1049500001C080E004B602FE06C094B79B7F94BFFE
:1049600004B600FE846004B601FE05C094B79D7FC6
:1049700094BF8260089581110CC004B600FE04C08B
:1049800094B79E7F94BF01C081E09091B0009111D7
:1049900081E00895811102C0E89A39C0813011F494
:1049A000E99A0895823011F4EA9A31C0833021F4F3
:1049B00080916B00816029C0843021F480916B006C
:1049C000826023C0853021F480916B0084601DC01B
:1049D000863021F480916B00886017C0873021F405
:1049E00080916B00806111C0883021F480916B0050
:1049F00080620BC0893021F480916B00806405C017
:104A00008A3039F480916B00806880936B0081E07C
:104A100008958FEF0895811102C0E89839C0813060
:104A200011F4E9980895823011F4E99831C0833087
:104A300021F480916B008E7F29C0843021F4809115
:104A40006B008D7F23C0853021F480916B008B7FBC
:104A50001DC0863021F480916B00877F17C087309E
:104A600021F480916B008F7E11C0883021F48091F9
:104A70006B008F7D0BC0893021F480916B008F7BA0
:104A800005C08A3039F480916B008F7780936B007A
:104A900081E008958FEF0895811126C05093F306A9
:104AA0004093F206611104C0809169008C7F3DC083
:104AB000613049F4809169008D7F80936900809115
:104AC0006900816032C0623049F48091690082607F
:104AD00080936900809169008E7F27C0633039F52B
:104AE00080916900836021C0813049F55093F106BF
:104AF0004093F006611104C080916900837F15C066
:104B0000613049F480916900877F809369008091CA
:104B1000690084600AC0623061F480916900886035
:104B200080936900809169008B7F8093690081E0A8
:104B300008956330E1F7809169008C60F6CF823090
:104B400031F55093F5064093F406611104C080914D
:104B500069008F7CEACF613049F4809169008F7DD4
:104B600080936900809169008061DFCF623049F4F1
:104B700080916900806280936900809169008F7ED6
:104B8000D4CF6330A1F6809169008063CECF83508B
:104B9000883050F480916800816080936800509361
:104BA000F7064093F606C3CF8FEF08951F920F923A
:104BB0000FB60F9211240BB60F922F933F934F9382
:104BC0005F936F937F938F939F93AF93BF93EF9375
:104BD000FF93E091F606F091F706309711F00995F2
:104BE00004C060E08AE00E943B14FF91EF91BF9106
:104BF000AF919F918F917F916F915F914F913F9175
:104C00002F910F900BBE0F900FBE0F901F90189515
:104C10001F920F920FB60F9211240BB60F922F9383
:104C20003F934F935F936F937F938F939F93AF9334
:104C3000BF93EF93FF93E091F206F091F306309764
:104C400011F0099504C060E08AE00E943B14FF91D6
:104C5000EF91BF91AF919F918F917F916F915F91F4
:104C60004F913F912F910F900BBE0F900FBE0F9061
:104C70001F9018951F920F920FB60F9211240BB62A
:104C80000F922F933F934F935F936F937F938F93E5
:104C90009F93AF93BF93EF93FF93E091F006F09152
:104CA000F106309711F0099504C060E08AE00E9497
:104CB0003B14FF91EF91BF91AF919F918F917F91A5
:104CC0006F915F914F913F912F910F900BBE0F907D
:104CD0000FBE0F901F9018951F920F920FB60F9254
:104CE00011240BB60F922F933F934F935F936F93C3
:104CF0007F938F939F93AF93BF93EF93FF93E09135
:104D0000F406F091F506309711F0099504C060E0C3
:104D10008AE00E943B14FF91EF91BF91AF919F9168
:104D20008F917F916F915F914F913F912F910F9054
:104D30000BBE0F900FBE0F901F901895A8959FB7B0
:104D4000F89484B7877F84BFE0E6F0E080818861D3
:104D5000808310829FBF08959FB7F894A89584B769
:104D6000877F84BFE0E6F0E08081886180838DE00A
:104D700080839FBF089504B603FE02C08FEF08959D
:104D800081E00895A8950895089583B7817F86608E
:104D900083BF83B7816083BF889583B78E7F83BFCE
:104DA000089583B7817F83BF83B7816083BF889570
:104DB00083B78E7F83BF0895FC0176836583089552
:104DC000EF92FF920F931F93CF93DF938C017B01A0
:104DD000EA014032510518F481E10E942C14219718
:104DE000CE0DDF1DF801D283C183F482E382DF910F
:104DF000CF911F910F91FF90EF90089525E5FA0153
:104E00002083FB0132979083319680833397118200
:104E1000108232971182108232971182108232975B
:104E20001182108232971182108232971182108281
:104E3000329711821082329711821082329711823A
:104E4000108232971182108232971182108232972B
:104E50001182108232971182108232971182108251
:104E6000329711821082329711821082CB0184977F
:104E7000FC0111821082089585E580937E41EEEF5A
:104E8000F1E4F0932B04E0932A048BE79FE09083F6
:104E90008093FF4108958BE79FE09093FE418093BC
:104EA000FF4108950E947F230C94D80DA09186069F
:104EB000B0918706CD91CDBFDD91DEBFFF91EF911F
:104EC000DF91CF91BF91AF919F918F917F916F9122
:104ED0005F914F913F912F911F910F91FF90EF9014
:104EE000DF90CF90BF90AF909F908F907F906F900A
:104EF0005F904F903F902F901F900F900FBE0F909C
:104F000018950E94870980E190E00E940B0D0E9495
:104F10004B0378940E94C2020E94DD0D82E090E073
:104F20000E94A20C83E090E00E94A20C81E090E03D
:104F30000E94A20C80E090E00E94A20C20E030E0F1
:104F4000A90160E070E0CB010E949C1D0E940F034C
:104F50000E94840E80E090E008956F927F928F927D
:104F60009F92AF92BF92CF92DF92EF92FF920F93F8
:104F70001F93CF93DF93CDB7DEB72C970FB6F8947E
:104F8000DEBF0FBECDBF6C015B017A01FC01178251
:104F90001682838181FF0EC1CE0101964C01F6017C
:104FA0000381F50103FD159103FF11915F011123A9
:104FB00009F4FCC0153249F403FD159103FF11916A
:104FC0005F01153211F020E01BC0B601812F90E087
:104FD0000E94122A37017301E2CF112309F4E6C0BF
:104FE000612F70E08EEF94E02C870E94A5292C851C
:104FF000892B49F0F50103FD159103FF11915F0124
:1050000027FFEBCF09C0133229F01C3609F0D5C0B9
:105010002068F0CF20E1EECF022F112309F4C6C0A3
:10502000612F70E087EF94E02C870E94A5292C85E2
:10503000892B41F03701F4E06F0E711CB6018FE34C
:1050400090E011C0133639F0133781F0133519F59C
:10505000022F01600BC0370182E0680E711CB6019F
:10506000F701808191810E94122AB5CF3701F2E0C9
:105070006F0E711CF701E080F180F70100FD859152
:1050800000FF81917F01882309F4A5CFB60190E04C
:105090000E94122AF2CF143611F0193629F5370181
:1050A00027FF09C0F4E06F0E711CF7016081718168
:1050B000828193810AC0F2E06F0E711CF70160815A
:1050C0007181882777FD8095982F022F0F7E97FF9B
:1050D00008C090958095709561957F4F8F4F9F4F39
:1050E00000642AE030E033C0103799F040F41835FE
:1050F000B1F01F3609F05AC028E030E014C015376F
:1051000019F0183741F052C0022F0F7E2AE030E02C
:105110000AC0022F0061046220E130E004C0022FC7
:10512000046020E132E0370107FF09C0F4E06F0EB0
:10513000711CF701608171818281938108C0F2E066
:105140006F0E711CF7016081718180E090E0A40115
:105150000E94C42A182F181906FF05C0B6018DE257
:1051600090E00E94122A04FF15C0FE01E10FF11D1C
:105170008081803379F0B60180E390E00E94122AAA
:1051800002FF08C00072802F90E0B601885A9F4F3E
:105190000E94122A1150F401E10FF11D8081B60125
:1051A00090E00E94122A1111F5CF15CFF6018681E9
:1051B000978105C08FEF9FEF02C0022F31CF2C9651
:1051C0000FB6F894DEBF0FBECDBFDF91CF911F9118
:1051D0000F91FF90EF90DF90CF90BF90AF909F9096
:1051E0008F907F906F9008950E949629A59F900DB3
:1051F000B49F900DA49F800D911D11240895DB0193
:105200008F939F930E94F428BF91AF91A29F800D2E
:10521000911DA39F900DB29F900D11240895A1E2BE
:105220001A2EAA1BBB1BFD010DC0AA1FBB1FEE1F20
:10523000FF1FA217B307E407F50720F0A21BB30B6B
:10524000E40BF50B661F771F881F991F1A9469F7E7
:1052500060957095809590959B01AC01BD01CF0143
:105260000895689401C0E8948F929F92CF93DF9342
:105270000E943F29DF91CF919F908F9008958824BD
:105280009924F401E401B0E49F93AA279A158B04B2
:105290009C04ED05FE05CF05D007A10798F4AD2FBE
:1052A000DC2FCF2FFE2FE92D982C892E982F872FBA
:1052B000762F652F542F432F322F2227B85031F7E6
:1052C000BF9127C01B2EBF91BB27220F331F441F46
:1052D000551F661F771F881F991F881C991CEE1F7A
:1052E000FF1FCC1FDD1FAA1FBB1F8A149B04EC05E8
:1052F000FD05CE05DF05A007B10748F08A189B0819
:10530000EC09FD09CE09DF09A00BB10B21601A944D
:10531000E1F62EF49401AF01BE01CD01000C089519
:10532000EE0FFF1F0590F491E02D0994A29FB001AC
:10533000B39FC001A39F700D811D1124911DB29FC9
:10534000700D811D1124911D0895FC010590061614
:1053500021F00020D9F7C00108953197CF010895B9
:10536000FB01DC0102C001900D9241505040D8F782
:105370000895FB01DC014150504030F08D910190C7
:10538000801919F40020B9F7881B990B08950F9321
:105390001F93CF93DF93009731F46115710519F4D2
:1053A00080E090E03AC08B01EC016EE070E081E0BB
:1053B00090E00E94382BFC01009791F380E88383F2
:1053C0000115110571F01387028781E883838091AD
:1053D000F8069091F906892B21F4F093F906E093F1
:1053E000F8062097C9F0D187C087838182608383C4
:1053F0008091FA069091FB06892B71F4F093FB06DD
:10540000E093FA068091FC069091FD06892B21F429
:10541000F093FD06E093FC06CF01DF91CF911F9141
:105420000F9108950F931F93CF93DF93FB01238177
:1054300021FD03C08FEF9FEF28C022FF16C04681D9
:105440005781248135814217530744F4A081B181EB
:105450009D012F5F3F4F318320838C9326813781BD
:105460002F5F3F4F3783268310C0EB01092F182F82
:105470000084F185E02D0995892BE1F68E819F81CD
:1054800001969F838E83812F902FDF91CF911F9163
:105490000F910895CF93DF93CDB7DEB7AE014B5F89
:1054A0005F4FFA0161917191AF018091FA0690917D
:1054B000FB060E94AD27DF91CF9108956091FA0617
:1054C0007091FB060C94122A0F931F93CF93DF93D6
:1054D000E091FA06F091FB06238121FF1BC08C01AD
:1054E000D0E0C0E0F80181918F016091FA067091DF
:1054F000FB06DB011896ED91FC911997882331F09A
:105500000995892B79F3DFEFCFEFECCF8AE009958E
:10551000892B19F08FEF9FEF02C08D2F9C2FDF9109
:10552000CF911F910F9108950F931F93CF93DF9306
:10553000CDB7DEB72E970FB6F894DEBF0FBECDBF46
:105540000D891E8986E08C831A8309838FEF9FE77C
:105550009E838D83AE01475E5F4F6F89788DCE014C
:1055600001960E94AD272F813885F801E20FF31FC5
:1055700010822E960FB6F894DEBF0FBECDBFDF911E
:10558000CF911F910F910895FA01AA27283051F168
:10559000203181F1E8946F936E7F6E5F7F4F8F4F64
:1055A0009F4FAF4FB1E03ED0B4E03CD0670F781FC3
:1055B000891F9A1FA11D680F791F8A1F911DA11DA8
:1055C0006A0F711D811D911DA11D20D009F46894E1
:1055D0003F912AE0269F11243019305D3193DEF689
:1055E000CF010895462F4770405D4193B3E00FD03F
:1055F000C9F7F6CF462F4F70405D4A3318F0495D2A
:1056000031FD4052419302D0A9F7EACFB4E0A6950C
:105610009795879577956795BA95C9F7009761052E
:10562000710508959B01AC010A2E06945795479584
:1056300037952795BA95C9F7620F731F841F951F79
:10564000A01D0895F999FECF92BD81BDF89A9927C2
:1056500080B50895262FF999FECF1FBA92BD81BD5E
:1056600020BD0FB6F894FA9AF99A0FBE01960895E4
:105670000F931F93CF93DF93869F8001879F100D19
:10568000969F100D1124C8010E94542BEC01009725
:1056900029F0A80160E070E00E94812CCE01DF912A
:1056A000CF911F910F910895CF93DF938230910591
:1056B00010F482E090E0E0910007F091010720E013
:1056C00030E0C0E0D0E0309711F1408151814817BF
:1056D0005907C0F04817590761F4828193812097D8
:1056E00019F09B838A832BC0909301078093000756
:1056F00026C02115310519F04217530718F49A01F5
:10570000BE01DF01EF010280F381E02DDCCF211526
:10571000310509F1281B390B2430310590F412961C
:105720008D919C9113976115710521F0FB01938375
:10573000828304C09093010780930007FD01329695
:1057400044C0FD01E20FF31F819391932250310970
:105750002D933C933AC02091FE063091FF06232BF7
:1057600041F420911302309114023093FF062093EC
:10577000FE0620911102309112022115310541F4EB
:105780002DB73EB74091150250911602241B350BE0
:10579000E091FE06F091FF06E217F307A0F42E1B3E
:1057A0003F0B2817390778F0AC014E5F5F4F241785
:1057B000350748F04E0F5F1F5093FF064093FE06DB
:1057C0008193919302C0E0E0F0E0CF01DF91CF91AF
:1057D00008950F931F93CF93DF93009709F48CC024
:1057E000FC01329713821282009100071091010789
:1057F0000115110581F420813181820F931F2091C1
:10580000FE063091FF062817390779F5F093FF0659
:10581000E093FE0671C0D80140E050E0AE17BF072C
:1058200050F412962D913C911397AD01211531053D
:1058300009F1D901F3CF9D01DA013383228360811D
:105840007181860F971F8217930769F4EC012881F5
:105850003981260F371F2E5F3F4F318320838A8186
:105860009B8193838283452B29F4F0930107E09376
:10587000000742C01396FC93EE931297ED014991F5
:1058800059919E01240F351FE217F30771F48081AF
:105890009181840F951F029611969C938E9382811D
:1058A000938113969C938E931297E0E0F0E0D801D9
:1058B00012968D919C911397009719F0F8018C0125
:1058C000F6CF8D919C9198012E5F3F4F820F931FD1
:1058D0002091FE063091FF062817390769F43097AA
:1058E00029F4109201071092000702C0138212825D
:1058F0001093FF060093FE06DF91CF911F910F9149
:105900000895DC0101C06D9341505040E0F70895C7
:04591000F894FFCF39
:10591400F84315A6D93D3182F18CA74FC599970458
:10592400AC0000020720003D352D251D150D053D59
:10593400352D251D150D052E261E160E06FFFF0CF2
:10594400043C342C241C140C043B332B231B130B5A
:105954003B332B231B130B03FFFFFFFFFFFFFFFF53
:10596400393129211911090119110901FFFFFFFF1B
:10597400FFFFFFFFFFFFFFFF2563200A0073656E33
:1059840074210D006374726C2072656769737465A9
:10599400723A202578200D0A007D0072665F7278C5
:1059A4005F7061636B65745F6E6F6E626C6F636B67
:1059B400206661696C65645D0D005061636B65749C
:1059C40020697320646F6E6520626F756E63696E03
:1059D400672061726F756E64210D0A005345513A58
:1059E4002534750954544C3A2532640952535349A9
:1059F4003A253464095061796C6F61643A205B25FF
:105A0400735D0D0A00256400256C7520736563734E
:105A140020256C75206D7300256C75207365637388
:105A240020256C75206D732C2000256C7500257560
:105A3400006375723A202564200063616E61727997
:105A4400203D202578200073746B203D202578208C
:105A5400007463622061646472203D2025780D0A1D
:105A64000025643A20626F74746F6D203D202578A0
:025A7400200010
:00000001FF
